:100000000C9434000C9446000C9446000C9446006A
:100010000C9446000C9446000C9446000C94460048
:100020000C9446000C9446000C9446000C94460038
:100030000C9446000C9448000C9446000C94460026
:100040000C9446000C9446000C9446000C94460018
:100050000C9446000C9446000C9446000C94460008
:100060000C9446000C94460011241FBECFEFD8E03C
:10007000DEBFCDBF21E0A0E0B1E001C01D92A730FE
:10008000B207E1F70E94DD000C94FA000C94000026
:100090001F920F920FB60F9211242F933F934F93FD
:1000A0005F936F937F938F939F93AF93BF9381E001
:1000B00080937E0080917A00806480937A008091A2
:1000C0007A0086FDFCCF9091780020E5929F902DDC
:1000D00011249093060180917900829F802D112434
:1000E0008093050180910401813009F45FC008F418
:1000F0005BC0823009F45CC080910401823008F05A
:1001000059C08F5F80930401209106018091050101
:10011000280F3327331F48EE53E0249FC001259F4B
:10012000900D349F900D1124092E000CAA0BBB0BCF
:100130008093000190930101A0930201B093030109
:100140004091000150910101609102017091030101
:1001500088EC9EEFAFEFBFEF841B950BA60BB70BA0
:10016000892F9A2FAB2FBB278093850040910001E8
:1001700050910101609102017091030188EC841B90
:100180008093840085B1809585B9BF91AF919F918F
:100190008F917F916F915F914F913F912F910F9030
:1001A0000FBE0F901F901895289AA6CF299AA4CF1A
:1001B0002A9AA2CF10920401A7CF8FEF8AB984B9EF
:1001C00080917A00856880937A0080917C00806CB1
:1001D00080937C0083EF809385008BEC8093840078
:1001E0001092800084E08093810081E080936F0012
:0801F0007894FFCFF894FFCFD3
:00000001FF
